{
  "_format": "hh-sol-artifact-1",
  "contractName": "AutoCompounder",
  "sourceName": "lib/relay-private/src/autoCompounder/AutoCompounder.sol",
  "abi": [
    {
      "inputs": [
        {
          "internalType": "address",
          "name": "_forwarder",
          "type": "address"
        },
        {
          "internalType": "address",
          "name": "_voter",
          "type": "address"
        },
        {
          "internalType": "address",
          "name": "_admin",
          "type": "address"
        },
        {
          "internalType": "string",
          "name": "_name",
          "type": "string"
        },
        {
          "internalType": "address",
          "name": "_router",
          "type": "address"
        },
        {
          "internalType": "address",
          "name": "_optimizer",
          "type": "address"
        },
        {
          "internalType": "address",
          "name": "_relayFactory",
          "type": "address"
        }
      ],
      "stateMutability": "nonpayable",
      "type": "constructor"
    },
    {
      "inputs": [],
      "name": "AmountInTooHigh",
      "type": "error"
    },
    {
      "inputs": [],
      "name": "AmountInZero",
      "type": "error"
    },
    {
      "inputs": [],
      "name": "HighLiquidityToken",
      "type": "error"
    },
    {
      "inputs": [],
      "name": "InvalidPath",
      "type": "error"
    },
    {
      "inputs": [],
      "name": "ManagedTokenNotOwned",
      "type": "error"
    },
    {
      "inputs": [],
      "name": "MulticallFailed",
      "type": "error"
    },
    {
      "inputs": [],
      "name": "NoRouteFound",
      "type": "error"
    },
    {
      "inputs": [],
      "name": "NotHighLiquidityToken",
      "type": "error"
    },
    {
      "inputs": [],
      "name": "NotKeeper",
      "type": "error"
    },
    {
      "inputs": [],
      "name": "OptimizerNotApproved",
      "type": "error"
    },
    {
      "inputs": [],
      "name": "SameOptimizer",
      "type": "error"
    },
    {
      "inputs": [],
      "name": "SlippageTooHigh",
      "type": "error"
    },
    {
      "inputs": [],
      "name": "TokenIdNotManaged",
      "type": "error"
    },
    {
      "inputs": [],
      "name": "TooLate",
      "type": "error"
    },
    {
      "inputs": [],
      "name": "TooSoon",
      "type": "error"
    },
    {
      "inputs": [],
      "name": "UnequalLengths",
      "type": "error"
    },
    {
      "inputs": [],
      "name": "ZeroAddress",
      "type": "error"
    },
    {
      "anonymous": false,
      "inputs": [
        {
          "indexed": false,
          "internalType": "uint256",
          "name": "balanceCompounded",
          "type": "uint256"
        }
      ],
      "name": "Compound",
      "type": "event"
    },
    {
      "anonymous": false,
      "inputs": [
        {
          "indexed": false,
          "internalType": "uint8",
          "name": "version",
          "type": "uint8"
        }
      ],
      "name": "Initialized",
      "type": "event"
    },
    {
      "anonymous": false,
      "inputs": [
        {
          "indexed": true,
          "internalType": "address",
          "name": "sender",
          "type": "address"
        },
        {
          "indexed": false,
          "internalType": "uint256",
          "name": "balanceRewarded",
          "type": "uint256"
        }
      ],
      "name": "Reward",
      "type": "event"
    },
    {
      "anonymous": false,
      "inputs": [
        {
          "indexed": true,
          "internalType": "bytes32",
          "name": "role",
          "type": "bytes32"
        },
        {
          "indexed": true,
          "internalType": "bytes32",
          "name": "previousAdminRole",
          "type": "bytes32"
        },
        {
          "indexed": true,
          "internalType": "bytes32",
          "name": "newAdminRole",
          "type": "bytes32"
        }
      ],
      "name": "RoleAdminChanged",
      "type": "event"
    },
    {
      "anonymous": false,
      "inputs": [
        {
          "indexed": true,
          "internalType": "bytes32",
          "name": "role",
          "type": "bytes32"
        },
        {
          "indexed": true,
          "internalType": "address",
          "name": "account",
          "type": "address"
        },
        {
          "indexed": true,
          "internalType": "address",
          "name": "sender",
          "type": "address"
        }
      ],
      "name": "RoleGranted",
      "type": "event"
    },
    {
      "anonymous": false,
      "inputs": [
        {
          "indexed": true,
          "internalType": "bytes32",
          "name": "role",
          "type": "bytes32"
        },
        {
          "indexed": true,
          "internalType": "address",
          "name": "account",
          "type": "address"
        },
        {
          "indexed": true,
          "internalType": "address",
          "name": "sender",
          "type": "address"
        }
      ],
      "name": "RoleRevoked",
      "type": "event"
    },
    {
      "anonymous": false,
      "inputs": [
        {
          "indexed": false,
          "internalType": "string",
          "name": "oldName",
          "type": "string"
        },
        {
          "indexed": false,
          "internalType": "string",
          "name": "newName",
          "type": "string"
        }
      ],
      "name": "SetName",
      "type": "event"
    },
    {
      "anonymous": false,
      "inputs": [
        {
          "indexed": true,
          "internalType": "address",
          "name": "_optimizer",
          "type": "address"
        }
      ],
      "name": "SetOptimizer",
      "type": "event"
    },
    {
      "anonymous": false,
      "inputs": [
        {
          "indexed": true,
          "internalType": "address",
          "name": "claimer",
          "type": "address"
        },
        {
          "indexed": true,
          "internalType": "address",
          "name": "token",
          "type": "address"
        },
        {
          "indexed": false,
          "internalType": "uint256",
          "name": "amountIn",
          "type": "uint256"
        },
        {
          "indexed": false,
          "internalType": "uint256",
          "name": "amountOut",
          "type": "uint256"
        },
        {
          "components": [
            {
              "internalType": "address",
              "name": "from",
              "type": "address"
            },
            {
              "internalType": "address",
              "name": "to",
              "type": "address"
            },
            {
              "internalType": "bool",
              "name": "stable",
              "type": "bool"
            },
            {
              "internalType": "address",
              "name": "factory",
              "type": "address"
            }
          ],
          "indexed": false,
          "internalType": "struct IRouter.Route[]",
          "name": "routes",
          "type": "tuple[]"
        }
      ],
      "name": "SwapTokenToVELO",
      "type": "event"
    },
    {
      "anonymous": false,
      "inputs": [
        {
          "indexed": true,
          "internalType": "address",
          "name": "token",
          "type": "address"
        },
        {
          "indexed": true,
          "internalType": "address",
          "name": "claimer",
          "type": "address"
        },
        {
          "indexed": true,
          "internalType": "address",
          "name": "recipient",
          "type": "address"
        },
        {
          "indexed": false,
          "internalType": "uint256",
          "name": "amount",
          "type": "uint256"
        }
      ],
      "name": "Sweep",
      "type": "event"
    },
    {
      "inputs": [],
      "name": "ALLOWED_CALLER",
      "outputs": [
        {
          "internalType": "bytes32",
          "name": "",
          "type": "bytes32"
        }
      ],
      "stateMutability": "view",
      "type": "function"
    },
    {
      "inputs": [],
      "name": "DEFAULT_ADMIN_ROLE",
      "outputs": [
        {
          "internalType": "bytes32",
          "name": "",
          "type": "bytes32"
        }
      ],
      "stateMutability": "view",
      "type": "function"
    },
    {
      "inputs": [],
      "name": "MAX_SLIPPAGE",
      "outputs": [
        {
          "internalType": "uint256",
          "name": "",
          "type": "uint256"
        }
      ],
      "stateMutability": "view",
      "type": "function"
    },
    {
      "inputs": [],
      "name": "POINTS",
      "outputs": [
        {
          "internalType": "uint256",
          "name": "",
          "type": "uint256"
        }
      ],
      "stateMutability": "view",
      "type": "function"
    },
    {
      "inputs": [
        {
          "internalType": "uint256",
          "name": "epoch",
          "type": "uint256"
        }
      ],
      "name": "amountTokenEarned",
      "outputs": [
        {
          "internalType": "uint256",
          "name": "amount",
          "type": "uint256"
        }
      ],
      "stateMutability": "view",
      "type": "function"
    },
    {
      "inputs": [],
      "name": "autoCompounderFactory",
      "outputs": [
        {
          "internalType": "contract IAutoCompounderFactory",
          "name": "",
          "type": "address"
        }
      ],
      "stateMutability": "view",
      "type": "function"
    },
    {
      "inputs": [
        {
          "internalType": "address[]",
          "name": "_bribes",
          "type": "address[]"
        },
        {
          "internalType": "address[][]",
          "name": "_tokens",
          "type": "address[][]"
        }
      ],
      "name": "claimBribes",
      "outputs": [],
      "stateMutability": "nonpayable",
      "type": "function"
    },
    {
      "inputs": [
        {
          "internalType": "address[]",
          "name": "_fees",
          "type": "address[]"
        },
        {
          "internalType": "address[][]",
          "name": "_tokens",
          "type": "address[][]"
        }
      ],
      "name": "claimFees",
      "outputs": [],
      "stateMutability": "nonpayable",
      "type": "function"
    },
    {
      "inputs": [],
      "name": "compound",
      "outputs": [],
      "stateMutability": "nonpayable",
      "type": "function"
    },
    {
      "inputs": [],
      "name": "distributor",
      "outputs": [
        {
          "internalType": "contract IRewardsDistributor",
          "name": "",
          "type": "address"
        }
      ],
      "stateMutability": "view",
      "type": "function"
    },
    {
      "inputs": [
        {
          "internalType": "bytes32",
          "name": "role",
          "type": "bytes32"
        }
      ],
      "name": "getRoleAdmin",
      "outputs": [
        {
          "internalType": "bytes32",
          "name": "",
          "type": "bytes32"
        }
      ],
      "stateMutability": "view",
      "type": "function"
    },
    {
      "inputs": [
        {
          "internalType": "bytes32",
          "name": "role",
          "type": "bytes32"
        },
        {
          "internalType": "uint256",
          "name": "index",
          "type": "uint256"
        }
      ],
      "name": "getRoleMember",
      "outputs": [
        {
          "internalType": "address",
          "name": "",
          "type": "address"
        }
      ],
      "stateMutability": "view",
      "type": "function"
    },
    {
      "inputs": [
        {
          "internalType": "bytes32",
          "name": "role",
          "type": "bytes32"
        }
      ],
      "name": "getRoleMemberCount",
      "outputs": [
        {
          "internalType": "uint256",
          "name": "",
          "type": "uint256"
        }
      ],
      "stateMutability": "view",
      "type": "function"
    },
    {
      "inputs": [
        {
          "internalType": "bytes32",
          "name": "role",
          "type": "bytes32"
        },
        {
          "internalType": "address",
          "name": "account",
          "type": "address"
        }
      ],
      "name": "grantRole",
      "outputs": [],
      "stateMutability": "nonpayable",
      "type": "function"
    },
    {
      "inputs": [
        {
          "internalType": "bytes32",
          "name": "role",
          "type": "bytes32"
        },
        {
          "internalType": "address",
          "name": "account",
          "type": "address"
        }
      ],
      "name": "hasRole",
      "outputs": [
        {
          "internalType": "bool",
          "name": "",
          "type": "bool"
        }
      ],
      "stateMutability": "view",
      "type": "function"
    },
    {
      "inputs": [
        {
          "internalType": "uint256",
          "name": "_value",
          "type": "uint256"
        }
      ],
      "name": "increaseAmount",
      "outputs": [],
      "stateMutability": "nonpayable",
      "type": "function"
    },
    {
      "inputs": [
        {
          "internalType": "uint256",
          "name": "_mTokenId",
          "type": "uint256"
        }
      ],
      "name": "initialize",
      "outputs": [],
      "stateMutability": "nonpayable",
      "type": "function"
    },
    {
      "inputs": [
        {
          "internalType": "address",
          "name": "forwarder",
          "type": "address"
        }
      ],
      "name": "isTrustedForwarder",
      "outputs": [
        {
          "internalType": "bool",
          "name": "",
          "type": "bool"
        }
      ],
      "stateMutability": "view",
      "type": "function"
    },
    {
      "inputs": [],
      "name": "keeperLastRun",
      "outputs": [
        {
          "internalType": "uint256",
          "name": "",
          "type": "uint256"
        }
      ],
      "stateMutability": "view",
      "type": "function"
    },
    {
      "inputs": [],
      "name": "mTokenId",
      "outputs": [
        {
          "internalType": "uint256",
          "name": "",
          "type": "uint256"
        }
      ],
      "stateMutability": "view",
      "type": "function"
    },
    {
      "inputs": [
        {
          "internalType": "bytes[]",
          "name": "_calls",
          "type": "bytes[]"
        }
      ],
      "name": "multicall",
      "outputs": [],
      "stateMutability": "nonpayable",
      "type": "function"
    },
    {
      "inputs": [],
      "name": "name",
      "outputs": [
        {
          "internalType": "string",
          "name": "",
          "type": "string"
        }
      ],
      "stateMutability": "view",
      "type": "function"
    },
    {
      "inputs": [
        {
          "internalType": "address",
          "name": "",
          "type": "address"
        },
        {
          "internalType": "address",
          "name": "",
          "type": "address"
        },
        {
          "internalType": "uint256",
          "name": "",
          "type": "uint256"
        },
        {
          "internalType": "bytes",
          "name": "",
          "type": "bytes"
        }
      ],
      "name": "onERC721Received",
      "outputs": [
        {
          "internalType": "bytes4",
          "name": "",
          "type": "bytes4"
        }
      ],
      "stateMutability": "nonpayable",
      "type": "function"
    },
    {
      "inputs": [],
      "name": "optimizer",
      "outputs": [
        {
          "internalType": "contract IOptimizer",
          "name": "",
          "type": "address"
        }
      ],
      "stateMutability": "view",
      "type": "function"
    },
    {
      "inputs": [],
      "name": "relayFactory",
      "outputs": [
        {
          "internalType": "contract IRelayFactory",
          "name": "",
          "type": "address"
        }
      ],
      "stateMutability": "view",
      "type": "function"
    },
    {
      "inputs": [
        {
          "internalType": "bytes32",
          "name": "role",
          "type": "bytes32"
        },
        {
          "internalType": "address",
          "name": "account",
          "type": "address"
        }
      ],
      "name": "renounceRole",
      "outputs": [],
      "stateMutability": "nonpayable",
      "type": "function"
    },
    {
      "inputs": [
        {
          "internalType": "bytes32",
          "name": "role",
          "type": "bytes32"
        },
        {
          "internalType": "address",
          "name": "account",
          "type": "address"
        }
      ],
      "name": "revokeRole",
      "outputs": [],
      "stateMutability": "nonpayable",
      "type": "function"
    },
    {
      "inputs": [],
      "name": "rewardAndCompound",
      "outputs": [],
      "stateMutability": "nonpayable",
      "type": "function"
    },
    {
      "inputs": [],
      "name": "router",
      "outputs": [
        {
          "internalType": "contract IRouter",
          "name": "",
          "type": "address"
        }
      ],
      "stateMutability": "view",
      "type": "function"
    },
    {
      "inputs": [
        {
          "internalType": "string",
          "name": "_name",
          "type": "string"
        }
      ],
      "name": "setName",
      "outputs": [],
      "stateMutability": "nonpayable",
      "type": "function"
    },
    {
      "inputs": [
        {
          "internalType": "address",
          "name": "_optimizer",
          "type": "address"
        }
      ],
      "name": "setOptimizer",
      "outputs": [],
      "stateMutability": "nonpayable",
      "type": "function"
    },
    {
      "inputs": [
        {
          "internalType": "bytes4",
          "name": "interfaceId",
          "type": "bytes4"
        }
      ],
      "name": "supportsInterface",
      "outputs": [
        {
          "internalType": "bool",
          "name": "",
          "type": "bool"
        }
      ],
      "stateMutability": "view",
      "type": "function"
    },
    {
      "inputs": [
        {
          "internalType": "address",
          "name": "_token",
          "type": "address"
        },
        {
          "internalType": "uint256",
          "name": "_slippage",
          "type": "uint256"
        },
        {
          "components": [
            {
              "internalType": "address",
              "name": "from",
              "type": "address"
            },
            {
              "internalType": "address",
              "name": "to",
              "type": "address"
            },
            {
              "internalType": "bool",
              "name": "stable",
              "type": "bool"
            },
            {
              "internalType": "address",
              "name": "factory",
              "type": "address"
            }
          ],
          "internalType": "struct IRouter.Route[]",
          "name": "_optionalRoute",
          "type": "tuple[]"
        }
      ],
      "name": "swapTokenToVELOWithOptionalRoute",
      "outputs": [],
      "stateMutability": "nonpayable",
      "type": "function"
    },
    {
      "inputs": [
        {
          "internalType": "address[]",
          "name": "_tokensToSweep",
          "type": "address[]"
        },
        {
          "internalType": "address[]",
          "name": "_recipients",
          "type": "address[]"
        }
      ],
      "name": "sweep",
      "outputs": [],
      "stateMutability": "nonpayable",
      "type": "function"
    },
    {
      "inputs": [],
      "name": "token",
      "outputs": [
        {
          "internalType": "address",
          "name": "",
          "type": "address"
        }
      ],
      "stateMutability": "view",
      "type": "function"
    },
    {
      "inputs": [],
      "name": "ve",
      "outputs": [
        {
          "internalType": "contract IVotingEscrow",
          "name": "",
          "type": "address"
        }
      ],
      "stateMutability": "view",
      "type": "function"
    },
    {
      "inputs": [],
      "name": "velo",
      "outputs": [
        {
          "internalType": "contract IERC20",
          "name": "",
          "type": "address"
        }
      ],
      "stateMutability": "view",
      "type": "function"
    },
    {
      "inputs": [
        {
          "internalType": "address[]",
          "name": "_poolVote",
          "type": "address[]"
        },
        {
          "internalType": "uint256[]",
          "name": "_weights",
          "type": "uint256[]"
        }
      ],
      "name": "vote",
      "outputs": [],
      "stateMutability": "nonpayable",
      "type": "function"
    },
    {
      "inputs": [],
      "name": "voter",
      "outputs": [
        {
          "internalType": "contract IVoter",
          "name": "",
          "type": "address"
        }
      ],
      "stateMutability": "view",
      "type": "function"
    }
  ],
  "bytecode": "0x6101606040523480156200001257600080fd5b50604051620041943803806200419483398101604081905262000035916200041e565b6001600160a01b038088166080526001600055861660a081905260408051630fc2838b60e11b81529051899289928992869288928b92631f850716916004808201926020929091908290030181865afa15801562000097573d6000803e3d6000fd5b505050506040513d601f19601f82011682018060405250810190620000bd919062000563565b6001600160a01b031660c081905260408051637e062a3560e11b8152905163fc0c546a916004808201926020929091908290030181865afa15801562000107573d6000803e3d6000fd5b505050506040513d601f19601f820116820180604052508101906200012d919062000563565b6001600160a01b0390811660e052600680546001600160a01b03191685831617905560c051604080516317fc212560e31b81529051919092169163bfe109289160048083019260209291908290030181865afa15801562000192573d6000803e3d6000fd5b505050506040513d601f19601f82011682018060405250810190620001b8919062000563565b6001600160a01b0390811661010052600780546001600160a01b0319169184169190911790556005620001ec82826200060f565b50620001fa6000856200025e565b505050505050620002106200028960201b60201c565b6001600160a01b0390811661012052831661014052620002517f7437720917ffc71be5dbfd61616849063f25aa1b112e64e43aaa76f282aaddff866200025e565b50505050505050620006db565b6200026a82826200029a565b600082815260026020526040902062000284908262000342565b505050565b60006200029562000362565b905090565b60008281526001602090815260408083206001600160a01b038516845290915290205460ff166200033e5760008281526001602081815260408084206001600160a01b0386168552909152909120805460ff19169091179055620002fd62000289565b6001600160a01b0316816001600160a01b0316837f2f8788117e7eff1d82e926ec794901d17c78024a50270940304540a733656f0d60405160405180910390a45b5050565b600062000359836001600160a01b03841662000399565b90505b92915050565b6080516000906001600160a01b03163314801562000381575060143610155b1562000394575060131936013560601c90565b503390565b6000818152600183016020526040812054620003e2575081546001818101845560008481526020808220909301849055845484825282860190935260409020919091556200035c565b5060006200035c565b80516001600160a01b03811681146200040357600080fd5b919050565b634e487b7160e01b600052604160045260246000fd5b600080600080600080600060e0888a0312156200043a57600080fd5b6200044588620003eb565b9650602062000456818a01620003eb565b96506200046660408a01620003eb565b60608a01519096506001600160401b03808211156200048457600080fd5b818b0191508b601f8301126200049957600080fd5b815181811115620004ae57620004ae62000408565b604051601f8201601f19908116603f01168101908382118183101715620004d957620004d962000408565b816040528281528e86848701011115620004f257600080fd5b600093505b82841015620005165784840186015181850187015292850192620004f7565b60008684830101528099505050505050506200053560808901620003eb565b92506200054560a08901620003eb565b91506200055560c08901620003eb565b905092959891949750929550565b6000602082840312156200057657600080fd5b6200035982620003eb565b600181811c908216806200059657607f821691505b602082108103620005b757634e487b7160e01b600052602260045260246000fd5b50919050565b601f8211156200028457600081815260208120601f850160051c81016020861015620005e65750805b601f850160051c820191505b818110156200060757828155600101620005f2565b505050505050565b81516001600160401b038111156200062b576200062b62000408565b62000643816200063c845462000581565b84620005bd565b602080601f8311600181146200067b5760008415620006625750858301515b600019600386901b1c1916600185901b17855562000607565b600085815260208120601f198616915b82811015620006ac578886015182559484019460019091019084016200068b565b5085821015620006cb5787850151600019600388901b60f8161c191681555b5050505050600190811b01905550565b60805160a05160c05160e05161010051610120516101405161399362000801600039600081816105bb015281816111eb015261122a0152600081816104920152818161099e0152818161105501526114830152600081816104e6015281816123090152612398015260008181610432015281816105e801528181610715015281816107c70152818161091601528181610a5d01528181610d4c01528181610e7301528181610fd901528181611ae70152611b670152600081816102c5015281816107e80152818161082b01528181611a5201528181611b8801528181611bcb01528181611c8401528181611e1a0152611edc01526000818161038a015281816116af0152818161184101526119c20152600081816103bc015261247401526139936000f3fe608060405234801561001057600080fd5b506004361061023d5760003560e01c806391d148541161013b578063c47f0027116100b8578063f69e20461161007c578063f69e2046146105ae578063f887ea40146105b6578063f9759518146105dd578063fc0c546a146105e6578063fe4b84df1461060c57600080fd5b8063c47f00271461053b578063c991866d1461054e578063ca15c87314610561578063d547741f14610574578063eb1410e91461058757600080fd5b8063adadb50d116100ff578063adadb50d146104cf578063b2da6c50146104d8578063bfe10928146104e1578063bff136a914610508578063c2b79e981461052857600080fd5b806391d148541461046757806398cf47151461047a5780639d1898e21461048d578063a217fddf146104b4578063ac9650d8146104bc57600080fd5b806336568abe116101c95780636f816a201161018d5780636f816a20146103ff57806370156bf2146104125780637f6e4281146104255780638c7c53ce1461042d5780639010d07c1461045457600080fd5b806336568abe1461035f5780633fee1d501461037257806346c96aac14610385578063572b6c05146103ac5780636e7e1978146103ec57600080fd5b80631f850716116102105780631f850716146102c0578063229d6c28146102ff578063248a9ca3146103075780632f2ff15d146103395780633103ccb71461034c57600080fd5b806301ffc9a71461024257806306fdde031461026a578063150b7a021461027f57806315456eba146102ab575b600080fd5b610255610250366004612cc0565b61061f565b60405190151581526020015b60405180910390f35b61027261064a565b6040516102619190612d3a565b61029261028d366004612dd0565b6106d8565b6040516001600160e01b03199091168152602001610261565b6102be6102b9366004612e93565b6106e9565b005b6102e77f000000000000000000000000000000000000000000000000000000000000000081565b6040516001600160a01b039091168152602001610261565b6102be610893565b61032b610315366004612e93565b6000908152600160208190526040909120015490565b604051908152602001610261565b6102be610347366004612eac565b610b21565b6102be61035a366004612edc565b610b4c565b6102be61036d366004612eac565b610c83565b6102be610380366004612f2a565b610d16565b6102e77f000000000000000000000000000000000000000000000000000000000000000081565b6102556103ba366004612edc565b7f00000000000000000000000000000000000000000000000000000000000000006001600160a01b0390811691161490565b6102be6103fa366004613086565b6113b0565b6102be61040d366004613086565b61166a565b6006546102e7906001600160a01b031681565b61032b600381565b6102e77f000000000000000000000000000000000000000000000000000000000000000081565b6102e76104623660046130f1565b611727565b610255610475366004612eac565b611746565b6007546102e7906001600160a01b031681565b6102e77f000000000000000000000000000000000000000000000000000000000000000081565b61032b600081565b6102be6104ca366004613113565b611771565b61032b60045481565b61032b60085481565b6102e77f000000000000000000000000000000000000000000000000000000000000000081565b61032b610516366004612e93565b60096020526000908152604090205481565b6102be610536366004613086565b611826565b6102be610549366004613154565b6118ba565b6102be61055c366004613086565b6119a7565b61032b61056f366004612e93565b6119fb565b6102be610582366004612eac565b611a12565b61032b7f7437720917ffc71be5dbfd61616849063f25aa1b112e64e43aaa76f282aaddff81565b6102be611a38565b6102e77f000000000000000000000000000000000000000000000000000000000000000081565b61032b6101f481565b7f00000000000000000000000000000000000000000000000000000000000000006102e7565b6102be61061a366004612e93565b611d44565b60006001600160e01b03198216635a05180f60e01b1480610644575061064482611fbc565b92915050565b60058054610657906131c5565b80601f0160208091040260200160405190810160405280929190818152602001828054610683906131c5565b80156106d05780601f106106a5576101008083540402835291602001916106d0565b820191906000526020600020905b8154815290600101906020018083116106b357829003601f168201915b505050505081565b630a85bd0160e11b5b949350505050565b7f7437720917ffc71be5dbfd61616849063f25aa1b112e64e43aaa76f282aaddff61071381611ff1565b7f00000000000000000000000000000000000000000000000000000000000000006001600160a01b03166323b872dd61074a612005565b6040516001600160e01b031960e084901b1681526001600160a01b039091166004820152306024820152604481018590526064016020604051808303816000875af115801561079d573d6000803e3d6000fd5b505050506040513d601f19601f820116820180604052508101906107c191906131ff565b5061080d7f00000000000000000000000000000000000000000000000000000000000000007f000000000000000000000000000000000000000000000000000000000000000084612014565b6004805460405163b2383e5560e01b815291820152602481018390527f00000000000000000000000000000000000000000000000000000000000000006001600160a01b03169063b2383e5590604401600060405180830381600087803b15801561087757600080fd5b505af115801561088b573d6000803e3d6000fd5b505050505050565b4260006201518062093a806108a88185613232565b6108b2908561325c565b6108bc919061326f565b6108c6919061325c565b9050808210156108e957604051636fed7d8560e01b815260040160405180910390fd5b60006108f3612005565b6040516370a0823160e01b81523060048201529091506000906001600160a01b037f000000000000000000000000000000000000000000000000000000000000000016906370a0823190602401602060405180830381865afa15801561095d573d6000803e3d6000fd5b505050506040513d601f19601f820116820180604052508101906109819190613282565b905060008115610b1257600061099860648461329b565b905060007f00000000000000000000000000000000000000000000000000000000000000006001600160a01b031663f7b2a7be6040518163ffffffff1660e01b8152600401602060405180830381865afa1580156109fa573d6000803e3d6000fd5b505050506040513d601f19601f82011682018060405250810190610a1e9190613282565b9050808210610a2d5780610a2f565b815b92508215610acc5760405163a9059cbb60e01b81526001600160a01b038681166004830152602482018590527f0000000000000000000000000000000000000000000000000000000000000000169063a9059cbb906044016020604051808303816000875af1158015610aa6573d6000803e3d6000fd5b505050506040513d601f19601f82011682018060405250810190610aca91906131ff565b505b846001600160a01b03167f619caafabdd75649b302ba8419e48cccf64f37f1983ac4727cfb38b57703ffc984604051610b0791815260200190565b60405180910390a250505b610b1a611a38565b5050505050565b60008281526001602081905260409091200154610b3d81611ff1565b610b4783836120b8565b505050565b6000610b5781611ff1565b6001600160a01b038216610b7e5760405163d92e233d60e01b815260040160405180910390fd5b6007546001600160a01b03808416911603610bac57604051635a72cb4560e01b815260040160405180910390fd5b600654604051630cb1ecc760e31b81526001600160a01b0384811660048301529091169063658f663890602401602060405180830381865afa158015610bf6573d6000803e3d6000fd5b505050506040513d601f19601f82011682018060405250810190610c1a91906131ff565b15610c3857604051631a29c06b60e11b815260040160405180910390fd5b600780546001600160a01b0319166001600160a01b0384169081179091556040517f301c03671785e657bc9c566c6a1be1dacedb60210c848fa360eeaf56ae0f0a4090600090a25050565b610c8b612005565b6001600160a01b0316816001600160a01b031614610d085760405162461bcd60e51b815260206004820152602f60248201527f416363657373436f6e74726f6c3a2063616e206f6e6c792072656e6f756e636560448201526e103937b632b9903337b91039b2b63360891b60648201526084015b60405180910390fd5b610d1282826120da565b5050565b610d1e6120fc565b610d2733612155565b6101f4821115610d4a5760405163428637bb60e11b815260040160405180910390fd5b7f00000000000000000000000000000000000000000000000000000000000000006001600160a01b0316836001600160a01b031603610d9c576040516320db826760e01b815260040160405180910390fd5b6001600160a01b038316610dc35760405163d92e233d60e01b815260040160405180910390fd5b6040516370a0823160e01b81523060048201526000906001600160a01b038516906370a0823190602401602060405180830381865afa158015610e0a573d6000803e3d6000fd5b505050506040513d601f19601f82011682018060405250810190610e2e9190613282565b905080600003610e51576040516340561e0d60e01b815260040160405180910390fd5b6007546040516350e5a49360e01b81526001600160a01b0386811660048301527f0000000000000000000000000000000000000000000000000000000000000000811660248301526044820184905260009216906350e5a49390606401600060405180830381865afa158015610ecb573d6000803e3d6000fd5b505050506040513d6000823e601f3d908101601f19168201604052610ef391908101906132af565b600754604051637cb49a8f60e11b81529192506000916001600160a01b039091169063f969351e90610f3090859087906003908b906004016133fd565b602060405180830381865afa158015610f4d573d6000803e3d6000fd5b505050506040513d601f19601f82011682018060405250810190610f719190613282565b845190915060018111156111c457866001600160a01b031685600081518110610f9c57610f9c61342c565b6020026020010151600001516001600160a01b031614610fcf576040516320db826760e01b815260040160405180910390fd5b6001600160a01b037f0000000000000000000000000000000000000000000000000000000000000000168561100560018461325c565b815181106110155761101561342c565b6020026020010151602001516001600160a01b031614611048576040516320db826760e01b815260040160405180910390fd5b60015b81811015611137577f00000000000000000000000000000000000000000000000000000000000000006001600160a01b03166307e1eaa48783815181106110945761109461342c565b6020908102919091010151516040516001600160e01b031960e084901b1681526001600160a01b039091166004820152602401602060405180830381865afa1580156110e4573d6000803e3d6000fd5b505050506040513d601f19601f8201168201806040525081019061110891906131ff565b6111255760405163b1b3464d60e01b815260040160405180910390fd5b8061112f81613442565b91505061104b565b50600754604051637cb49a8f60e11b81526000916001600160a01b03169063f969351e9061117090899089906003908d906004016133fd565b602060405180830381865afa15801561118d573d6000803e3d6000fd5b505050506040513d601f19601f820116820180604052508101906111b19190613282565b9050828111156111c2578593508092505b505b816000036111e5576040516305fcedf360e01b815260040160405180910390fd5b611210877f000000000000000000000000000000000000000000000000000000000000000086612014565b60405163cac88ea960e01b81526000906001600160a01b037f0000000000000000000000000000000000000000000000000000000000000000169063cac88ea990611267908890879089903090429060040161345b565b6000604051808303816000875af1158015611286573d6000803e3d6000fd5b505050506040513d6000823e601f3d908101601f191682016040526112ae9190810190613497565b6006546040516335d2155560e11b81523360048201529192506001600160a01b031690636ba42aaa90602401602060405180830381865afa1580156112f7573d6000803e3d6000fd5b505050506040513d601f19601f8201168201806040525081019061131b91906131ff565b1561132557426008555b876001600160a01b0316611337612005565b6001600160a01b03167f5231e9caf9fa6856b27890f39a8e29bb8c0e984a5426200cf0e7ce3bcd2136d5878460018651611371919061325c565b815181106113815761138161342c565b6020026020010151886040516113999392919061351c565b60405180910390a35050505050610b476001600055565b60006113bb81611ff1565b4260006113cb62093a8083613232565b6113d5908361325c565b6113e2906201518061326f565b90508082106114045760405163ecdd1c2960e01b815260040160405180910390fd5b61140c6120fc565b8584811461142d5760405163332ac86360e21b815260040160405180910390fd5b60005b8181101561165557600089898381811061144c5761144c61342c565b90506020020160208101906114619190612edc565b6040516301f87aa960e21b81526001600160a01b0380831660048301529192507f0000000000000000000000000000000000000000000000000000000000000000909116906307e1eaa490602401602060405180830381865afa1580156114cc573d6000803e3d6000fd5b505050506040513d601f19601f820116820180604052508101906114f091906131ff565b1561150e576040516322794f5d60e11b815260040160405180910390fd5b60008888848181106115225761152261342c565b90506020020160208101906115379190612edc565b90506001600160a01b0381166115605760405163d92e233d60e01b815260040160405180910390fd5b6040516370a0823160e01b81523060048201526000906001600160a01b038416906370a0823190602401602060405180830381865afa1580156115a7573d6000803e3d6000fd5b505050506040513d601f19601f820116820180604052508101906115cb9190613282565b9050801561163f576115e76001600160a01b038416838361227d565b816001600160a01b0316336001600160a01b0316846001600160a01b03167ffe6f9ffae65cf2c41cdbb3faf5a94e71eab2c2c62215df2efd79e12e451d0b628460405161163691815260200190565b60405180910390a45b505050808061164d90613442565b915050611430565b50506116616001600055565b50505050505050565b7f7437720917ffc71be5dbfd61616849063f25aa1b112e64e43aaa76f282aaddff61169481611ff1565b60048054604051637ac09bf760e01b81526001600160a01b037f00000000000000000000000000000000000000000000000000000000000000001692637ac09bf7926116ea9290918a918a918a918a9101613582565b600060405180830381600087803b15801561170457600080fd5b505af1158015611718573d6000803e3d6000fd5b50504260085550505050505050565b600082815260026020526040812061173f90836122e0565b9392505050565b60009182526001602090815260408084206001600160a01b0393909316845291905290205460ff1690565b60005b81811015610b47576000308484848181106117915761179161342c565b90506020028101906117a391906135d5565b6040516117b192919061361b565b600060405180830381855af49150503d80600081146117ec576040519150601f19603f3d011682016040523d82523d6000602084013e6117f1565b606091505b5050905080611813576040516309ad446560e31b815260040160405180910390fd5b508061181e81613442565b915050611774565b60048054604051637715ee7560e01b81526001600160a01b037f00000000000000000000000000000000000000000000000000000000000000001692637715ee759261187a9289928992899289920161362b565b600060405180830381600087803b15801561189457600080fd5b505af11580156118a8573d6000803e3d6000fd5b505050506118b46122ec565b50505050565b60006118c581611ff1565b6000600580546118d4906131c5565b80601f0160208091040260200160405190810160405280929190818152602001828054611900906131c5565b801561194d5780601f106119225761010080835404028352916020019161194d565b820191906000526020600020905b81548152906001019060200180831161193057829003601f168201915b5050505050905083836005918261196592919061372f565b507fbcfc2e8e6857ca26084ba5543a45251aaf7690f73043fff1d18c7d5f80e5cbb1818585604051611999939291906137ee565b60405180910390a150505050565b600480546040516333312b5560e11b81526001600160a01b037f0000000000000000000000000000000000000000000000000000000000000000169263666256aa9261187a9289928992899289920161362b565b60008181526002602052604081206106449061240d565b60008281526001602081905260409091200154611a2e81611ff1565b610b4783836120da565b600480546040516339f890b560e21b8152918201526000907f00000000000000000000000000000000000000000000000000000000000000006001600160a01b03169063e7e242d490602401602060405180830381865afa158015611aa1573d6000803e3d6000fd5b505050506040513d601f19601f82011682018060405250810190611ac59190613282565b9050611acf6122ec565b6040516370a0823160e01b81523060048201526000907f00000000000000000000000000000000000000000000000000000000000000006001600160a01b0316906370a0823190602401602060405180830381865afa158015611b36573d6000803e3d6000fd5b505050506040513d601f19601f82011682018060405250810190611b5a9190613282565b90508015611c6957611bad7f00000000000000000000000000000000000000000000000000000000000000007f000000000000000000000000000000000000000000000000000000000000000083612014565b6004805460405163b2383e5560e01b815291820152602481018290527f00000000000000000000000000000000000000000000000000000000000000006001600160a01b03169063b2383e5590604401600060405180830381600087803b158015611c1757600080fd5b505af1158015611c2b573d6000803e3d6000fd5b505050507f75d46d90b68dabaae9c3f83d09c4dbe472247c44e5f7b51dbf62b44487c7896b81604051611c6091815260200190565b60405180910390a15b50600480546040516339f890b560e21b8152918201526000907f00000000000000000000000000000000000000000000000000000000000000006001600160a01b03169063e7e242d490602401602060405180830381865afa158015611cd3573d6000803e3d6000fd5b505050506040513d601f19601f82011682018060405250810190611cf79190613282565b905080821015610d1257611d0b828261325c565b60096000611d1e4262093a808106900390565b81526020019081526020016000206000828254611d3b919061326f565b90915550505050565b600354610100900460ff1615808015611d645750600354600160ff909116105b80611d7e5750303b158015611d7e575060035460ff166001145b611de15760405162461bcd60e51b815260206004820152602e60248201527f496e697469616c697a61626c653a20636f6e747261637420697320616c72656160448201526d191e481a5b9a5d1a585b1a5e995960921b6064820152608401610cff565b6003805460ff191660011790558015611e04576003805461ff0019166101001790555b600260405161f8e560ef1b8152600481018490527f00000000000000000000000000000000000000000000000000000000000000006001600160a01b031690637c72800090602401602060405180830381865afa158015611e69573d6000803e3d6000fd5b505050506040513d601f19601f82011682018060405250810190611e8d919061384a565b6002811115611e9e57611e9e613834565b14611ebc57604051634bc9d63360e11b815260040160405180910390fd5b6040516331a9108f60e11b81526004810183905230906001600160a01b037f00000000000000000000000000000000000000000000000000000000000000001690636352211e90602401602060405180830381865afa158015611f23573d6000803e3d6000fd5b505050506040513d601f19601f82011682018060405250810190611f47919061386b565b6001600160a01b031614611f6e5760405163e927bfbd60e01b815260040160405180910390fd5b60048290558015610d12576003805461ff0019169055604051600181527f7f26b83ff96e1f2b6a682f133852f6798a09c465da95921460cefb38474024989060200160405180910390a15050565b60006001600160e01b03198216637965db0b60e01b148061064457506301ffc9a760e01b6001600160e01b0319831614610644565b61200281611ffd612005565b612417565b50565b600061200f612470565b905090565b604051636eb1769f60e11b81523060048201526001600160a01b0383811660248301526000919085169063dd62ed3e90604401602060405180830381865afa158015612064573d6000803e3d6000fd5b505050506040513d601f19601f820116820180604052508101906120889190613282565b905080156120a4576120a46001600160a01b03851684836124c2565b6118b46001600160a01b03851684846125cb565b6120c28282612678565b6000828152600260205260409020610b479082612700565b6120e48282612715565b6000828152600260205260409020610b47908261279a565b60026000540361214e5760405162461bcd60e51b815260206004820152601f60248201527f5265656e7472616e637947756172643a207265656e7472616e742063616c6c006044820152606401610cff565b6002600055565b612160600082611746565b156121685750565b42600061217862093a8083613232565b612182908361325c565b61218e90610e1061326f565b6006546040516335d2155560e11b81526001600160a01b038681166004830152929350911690636ba42aaa90602401602060405180830381865afa1580156121da573d6000803e3d6000fd5b505050506040513d601f19601f820116820180604052508101906121fe91906131ff565b156122285780821061220f57505050565b604051636fed7d8560e01b815260040160405180910390fd5b60006201518062093a8061223c8186613232565b612246908661325c565b612250919061326f565b61225a919061325c565b9050808310156118b457604051636fed7d8560e01b815260040160405180910390fd5b6040516001600160a01b038316602482015260448101829052610b4790849063a9059cbb60e01b906064015b60408051601f198184030181529190526020810180516001600160e01b03166001600160e01b0319909316929092179091526127af565b600061173f8383612884565b6004805460405163d1d58b2560e01b8152918201819052906000907f00000000000000000000000000000000000000000000000000000000000000006001600160a01b03169063d1d58b2590602401602060405180830381865afa158015612358573d6000803e3d6000fd5b505050506040513d601f19601f8201168201806040525081019061237c9190613282565b11156120025760405163379607f560e01b8152600481018290527f00000000000000000000000000000000000000000000000000000000000000006001600160a01b03169063379607f5906024016020604051808303816000875af11580156123e9573d6000803e3d6000fd5b505050506040513d601f19601f82011682018060405250810190610d129190613282565b6000610644825490565b6124218282611746565b610d125761242e816128ae565b6124398360206128c0565b60405160200161244a929190613888565b60408051601f198184030181529082905262461bcd60e51b8252610cff91600401612d3a565b60007f00000000000000000000000000000000000000000000000000000000000000006001600160a01b0316331480156124ab575060143610155b156124bd575060131936013560601c90565b503390565b604051636eb1769f60e11b81523060048201526001600160a01b0383811660248301526000919085169063dd62ed3e90604401602060405180830381865afa158015612512573d6000803e3d6000fd5b505050506040513d601f19601f820116820180604052508101906125369190613282565b90508181101561259a5760405162461bcd60e51b815260206004820152602960248201527f5361666545524332303a2064656372656173656420616c6c6f77616e63652062604482015268656c6f77207a65726f60b81b6064820152608401610cff565b6040516001600160a01b038416602482015282820360448201526118b490859063095ea7b360e01b906064016122a9565b604051636eb1769f60e11b81523060048201526001600160a01b0383811660248301526000919085169063dd62ed3e90604401602060405180830381865afa15801561261b573d6000803e3d6000fd5b505050506040513d601f19601f8201168201806040525081019061263f9190613282565b90506118b48463095ea7b360e01b85612658868661326f565b6040516001600160a01b03909216602483015260448201526064016122a9565b6126828282611746565b610d125760008281526001602081815260408084206001600160a01b0386168552909152909120805460ff191690911790556126bc612005565b6001600160a01b0316816001600160a01b0316837f2f8788117e7eff1d82e926ec794901d17c78024a50270940304540a733656f0d60405160405180910390a45050565b600061173f836001600160a01b038416612a5b565b61271f8282611746565b15610d125760008281526001602090815260408083206001600160a01b03851684529091529020805460ff19169055612756612005565b6001600160a01b0316816001600160a01b0316837ff6391f5c32d9c69d2a47ea670b442974b53935d1edc7fd64eb21e047a839171b60405160405180910390a45050565b600061173f836001600160a01b038416612aaa565b6000612804826040518060400160405280602081526020017f5361666545524332303a206c6f772d6c6576656c2063616c6c206661696c6564815250856001600160a01b0316612b9d9092919063ffffffff16565b905080516000148061282557508080602001905181019061282591906131ff565b610b475760405162461bcd60e51b815260206004820152602a60248201527f5361666545524332303a204552433230206f7065726174696f6e20646964206e6044820152691bdd081cdd58d8d9595960b21b6064820152608401610cff565b600082600001828154811061289b5761289b61342c565b9060005260206000200154905092915050565b60606106446001600160a01b03831660145b606060006128cf8360026138fd565b6128da90600261326f565b6001600160401b038111156128f1576128f1612d62565b6040519080825280601f01601f19166020018201604052801561291b576020820181803683370190505b509050600360fc1b816000815181106129365761293661342c565b60200101906001600160f81b031916908160001a905350600f60fb1b816001815181106129655761296561342c565b60200101906001600160f81b031916908160001a90535060006129898460026138fd565b61299490600161326f565b90505b6001811115612a0c576f181899199a1a9b1b9c1cb0b131b232b360811b85600f16601081106129c8576129c861342c565b1a60f81b8282815181106129de576129de61342c565b60200101906001600160f81b031916908160001a90535060049490941c93612a0581613914565b9050612997565b50831561173f5760405162461bcd60e51b815260206004820181905260248201527f537472696e67733a20686578206c656e67746820696e73756666696369656e746044820152606401610cff565b6000818152600183016020526040812054612aa257508154600181810184556000848152602080822090930184905584548482528286019093526040902091909155610644565b506000610644565b60008181526001830160205260408120548015612b93576000612ace60018361325c565b8554909150600090612ae29060019061325c565b9050818114612b47576000866000018281548110612b0257612b0261342c565b9060005260206000200154905080876000018481548110612b2557612b2561342c565b6000918252602080832090910192909255918252600188019052604090208390555b8554869080612b5857612b5861392b565b600190038181906000526020600020016000905590558560010160008681526020019081526020016000206000905560019350505050610644565b6000915050610644565b60606106e1848460008585600080866001600160a01b03168587604051612bc49190613941565b60006040518083038185875af1925050503d8060008114612c01576040519150601f19603f3d011682016040523d82523d6000602084013e612c06565b606091505b5091509150612c1787838387612c22565b979650505050505050565b60608315612c91578251600003612c8a576001600160a01b0385163b612c8a5760405162461bcd60e51b815260206004820152601d60248201527f416464726573733a2063616c6c20746f206e6f6e2d636f6e74726163740000006044820152606401610cff565b50816106e1565b6106e18383815115612ca65781518083602001fd5b8060405162461bcd60e51b8152600401610cff9190612d3a565b600060208284031215612cd257600080fd5b81356001600160e01b03198116811461173f57600080fd5b60005b83811015612d05578181015183820152602001612ced565b50506000910152565b60008151808452612d26816020860160208601612cea565b601f01601f19169290920160200192915050565b60208152600061173f6020830184612d0e565b6001600160a01b038116811461200257600080fd5b634e487b7160e01b600052604160045260246000fd5b604051608081016001600160401b0381118282101715612d9a57612d9a612d62565b60405290565b604051601f8201601f191681016001600160401b0381118282101715612dc857612dc8612d62565b604052919050565b60008060008060808587031215612de657600080fd5b8435612df181612d4d565b9350602085810135612e0281612d4d565b93506040860135925060608601356001600160401b0380821115612e2557600080fd5b818801915088601f830112612e3957600080fd5b813581811115612e4b57612e4b612d62565b612e5d601f8201601f19168501612da0565b91508082528984828501011115612e7357600080fd5b808484018584013760008482840101525080935050505092959194509250565b600060208284031215612ea557600080fd5b5035919050565b60008060408385031215612ebf57600080fd5b823591506020830135612ed181612d4d565b809150509250929050565b600060208284031215612eee57600080fd5b813561173f81612d4d565b60006001600160401b03821115612f1257612f12612d62565b5060051b60200190565b801515811461200257600080fd5b60008060006060808587031215612f4057600080fd5b8435612f4b81612d4d565b935060208581013593506040808701356001600160401b03811115612f6f57600080fd5b8701601f81018913612f8057600080fd5b8035612f93612f8e82612ef9565b612da0565b81815260079190911b8201840190848101908b831115612fb257600080fd5b928501925b8284101561302a576080848d031215612fd05760008081fd5b612fd8612d78565b8435612fe381612d4d565b815284870135612ff281612d4d565b818801528486013561300381612f1c565b818701528488013561301481612d4d565b8189015282526080939093019290850190612fb7565b809750505050505050509250925092565b60008083601f84011261304d57600080fd5b5081356001600160401b0381111561306457600080fd5b6020830191508360208260051b850101111561307f57600080fd5b9250929050565b6000806000806040858703121561309c57600080fd5b84356001600160401b03808211156130b357600080fd5b6130bf8883890161303b565b909650945060208701359150808211156130d857600080fd5b506130e58782880161303b565b95989497509550505050565b6000806040838503121561310457600080fd5b50508035926020909101359150565b6000806020838503121561312657600080fd5b82356001600160401b0381111561313c57600080fd5b6131488582860161303b565b90969095509350505050565b6000806020838503121561316757600080fd5b82356001600160401b038082111561317e57600080fd5b818501915085601f83011261319257600080fd5b8135818111156131a157600080fd5b8660208285010111156131b357600080fd5b60209290920196919550909350505050565b600181811c908216806131d957607f821691505b6020821081036131f957634e487b7160e01b600052602260045260246000fd5b50919050565b60006020828403121561321157600080fd5b815161173f81612f1c565b634e487b7160e01b600052601260045260246000fd5b6000826132415761324161321c565b500690565b634e487b7160e01b600052601160045260246000fd5b8181038181111561064457610644613246565b8082018082111561064457610644613246565b60006020828403121561329457600080fd5b5051919050565b6000826132aa576132aa61321c565b500490565b600060208083850312156132c257600080fd5b82516001600160401b038111156132d857600080fd5b8301601f810185136132e957600080fd5b80516132f7612f8e82612ef9565b81815260079190911b8201830190838101908783111561331657600080fd5b928401925b82841015612c1757608084890312156133345760008081fd5b61333c612d78565b845161334781612d4d565b81528486015161335681612d4d565b8187015260408581015161336981612f1c565b9082015260608581015161337c81612d4d565b908201528252608093909301929084019061331b565b600081518084526020808501945080840160005b838110156133f257815180516001600160a01b039081168952848201518116858a01526040808301511515908a01526060918201511690880152608090960195908201906001016133a6565b509495945050505050565b6080815260006134106080830187613392565b6020830195909552506040810192909252606090910152919050565b634e487b7160e01b600052603260045260246000fd5b60006001820161345457613454613246565b5060010190565b85815284602082015260a06040820152600061347a60a0830186613392565b6001600160a01b0394909416606083015250608001529392505050565b600060208083850312156134aa57600080fd5b82516001600160401b038111156134c057600080fd5b8301601f810185136134d157600080fd5b80516134df612f8e82612ef9565b81815260059190911b820183019083810190878311156134fe57600080fd5b928401925b82841015612c1757835182529284019290840190613503565b83815282602082015260606040820152600061353b6060830184613392565b95945050505050565b8183526000602080850194508260005b858110156133f257813561356781612d4d565b6001600160a01b031687529582019590820190600101613554565b85815260606020820152600061359c606083018688613544565b82810360408401528381526001600160fb1b038411156135bb57600080fd5b8360051b8086602084013701602001979650505050505050565b6000808335601e198436030181126135ec57600080fd5b8301803591506001600160401b0382111561360657600080fd5b60200191503681900382131561307f57600080fd5b8183823760009101908152919050565b60608152600061363f606083018789613544565b60208382038185015281868352818301905060058288821b8501018960005b8a8110156136cf57868303601f190185528135368d9003601e1901811261368457600080fd5b8c0186810190356001600160401b0381111561369f57600080fd5b80861b36038213156136b057600080fd5b6136bb858284613544565b96880196945050509085019060010161365e565b505080955050505050508260408301529695505050505050565b601f821115610b4757600081815260208120601f850160051c810160208610156137105750805b601f850160051c820191505b8181101561088b5782815560010161371c565b6001600160401b0383111561374657613746612d62565b61375a8361375483546131c5565b836136e9565b6000601f84116001811461378e57600085156137765750838201355b600019600387901b1c1916600186901b178355610b1a565b600083815260209020601f19861690835b828110156137bf578685013582556020948501946001909201910161379f565b50868210156137dc5760001960f88860031b161c19848701351681555b505060018560011b0183555050505050565b6040815260006138016040830186612d0e565b8281036020840152838152838560208301376000602085830101526020601f19601f860116820101915050949350505050565b634e487b7160e01b600052602160045260246000fd5b60006020828403121561385c57600080fd5b81516003811061173f57600080fd5b60006020828403121561387d57600080fd5b815161173f81612d4d565b7f416363657373436f6e74726f6c3a206163636f756e74200000000000000000008152600083516138c0816017850160208801612cea565b7001034b99036b4b9b9b4b733903937b6329607d1b60179184019182015283516138f1816028840160208801612cea565b01602801949350505050565b808202811582820484141761064457610644613246565b60008161392357613923613246565b506000190190565b634e487b7160e01b600052603160045260246000fd5b60008251613953818460208701612cea565b919091019291505056fea264697066735822122077f45ff38bc3e72fb3d9b4c6ddfb6ae4a989b1cdfdfbcdc7145ef1357556b00d64736f6c63430008130033",
  "linkReferences": {},
  "deployedLinkReferences": {}
}