{
  "_format": "hh-sol-artifact-1",
  "contractName": "AutoConverter",
  "sourceName": "lib/relay-private/src/autoConverter/AutoConverter.sol",
  "abi": [
    {
      "inputs": [
        {
          "internalType": "address",
          "name": "_forwarder",
          "type": "address"
        },
        {
          "internalType": "address",
          "name": "_voter",
          "type": "address"
        },
        {
          "internalType": "address",
          "name": "_admin",
          "type": "address"
        },
        {
          "internalType": "string",
          "name": "_name",
          "type": "string"
        },
        {
          "internalType": "address",
          "name": "_router",
          "type": "address"
        },
        {
          "internalType": "address",
          "name": "_token",
          "type": "address"
        },
        {
          "internalType": "address",
          "name": "_optimizer",
          "type": "address"
        },
        {
          "internalType": "address",
          "name": "_relayFactory",
          "type": "address"
        }
      ],
      "stateMutability": "nonpayable",
      "type": "constructor"
    },
    {
      "inputs": [],
      "name": "AmountInZero",
      "type": "error"
    },
    {
      "inputs": [],
      "name": "InvalidPath",
      "type": "error"
    },
    {
      "inputs": [],
      "name": "ManagedTokenNotOwned",
      "type": "error"
    },
    {
      "inputs": [],
      "name": "MulticallFailed",
      "type": "error"
    },
    {
      "inputs": [],
      "name": "NoRouteFound",
      "type": "error"
    },
    {
      "inputs": [],
      "name": "NotHighLiquidityToken",
      "type": "error"
    },
    {
      "inputs": [],
      "name": "NotKeeper",
      "type": "error"
    },
    {
      "inputs": [],
      "name": "OptimizerNotApproved",
      "type": "error"
    },
    {
      "inputs": [],
      "name": "SameOptimizer",
      "type": "error"
    },
    {
      "inputs": [],
      "name": "SlippageTooHigh",
      "type": "error"
    },
    {
      "inputs": [],
      "name": "TokenIdNotManaged",
      "type": "error"
    },
    {
      "inputs": [],
      "name": "TooLate",
      "type": "error"
    },
    {
      "inputs": [],
      "name": "TooSoon",
      "type": "error"
    },
    {
      "inputs": [],
      "name": "UnequalLengths",
      "type": "error"
    },
    {
      "inputs": [],
      "name": "ZeroAddress",
      "type": "error"
    },
    {
      "anonymous": false,
      "inputs": [
        {
          "indexed": false,
          "internalType": "uint8",
          "name": "version",
          "type": "uint8"
        }
      ],
      "name": "Initialized",
      "type": "event"
    },
    {
      "anonymous": false,
      "inputs": [
        {
          "indexed": true,
          "internalType": "bytes32",
          "name": "role",
          "type": "bytes32"
        },
        {
          "indexed": true,
          "internalType": "bytes32",
          "name": "previousAdminRole",
          "type": "bytes32"
        },
        {
          "indexed": true,
          "internalType": "bytes32",
          "name": "newAdminRole",
          "type": "bytes32"
        }
      ],
      "name": "RoleAdminChanged",
      "type": "event"
    },
    {
      "anonymous": false,
      "inputs": [
        {
          "indexed": true,
          "internalType": "bytes32",
          "name": "role",
          "type": "bytes32"
        },
        {
          "indexed": true,
          "internalType": "address",
          "name": "account",
          "type": "address"
        },
        {
          "indexed": true,
          "internalType": "address",
          "name": "sender",
          "type": "address"
        }
      ],
      "name": "RoleGranted",
      "type": "event"
    },
    {
      "anonymous": false,
      "inputs": [
        {
          "indexed": true,
          "internalType": "bytes32",
          "name": "role",
          "type": "bytes32"
        },
        {
          "indexed": true,
          "internalType": "address",
          "name": "account",
          "type": "address"
        },
        {
          "indexed": true,
          "internalType": "address",
          "name": "sender",
          "type": "address"
        }
      ],
      "name": "RoleRevoked",
      "type": "event"
    },
    {
      "anonymous": false,
      "inputs": [
        {
          "indexed": true,
          "internalType": "address",
          "name": "_optimizer",
          "type": "address"
        }
      ],
      "name": "SetOptimizer",
      "type": "event"
    },
    {
      "anonymous": false,
      "inputs": [
        {
          "indexed": true,
          "internalType": "address",
          "name": "claimer",
          "type": "address"
        },
        {
          "indexed": true,
          "internalType": "address",
          "name": "token",
          "type": "address"
        },
        {
          "indexed": false,
          "internalType": "uint256",
          "name": "amountIn",
          "type": "uint256"
        },
        {
          "indexed": false,
          "internalType": "uint256",
          "name": "amountOut",
          "type": "uint256"
        },
        {
          "components": [
            {
              "internalType": "address",
              "name": "from",
              "type": "address"
            },
            {
              "internalType": "address",
              "name": "to",
              "type": "address"
            },
            {
              "internalType": "bool",
              "name": "stable",
              "type": "bool"
            },
            {
              "internalType": "address",
              "name": "factory",
              "type": "address"
            }
          ],
          "indexed": false,
          "internalType": "struct IRouter.Route[]",
          "name": "routes",
          "type": "tuple[]"
        }
      ],
      "name": "SwapTokenToToken",
      "type": "event"
    },
    {
      "inputs": [],
      "name": "ALLOWED_CALLER",
      "outputs": [
        {
          "internalType": "bytes32",
          "name": "",
          "type": "bytes32"
        }
      ],
      "stateMutability": "view",
      "type": "function"
    },
    {
      "inputs": [],
      "name": "DEFAULT_ADMIN_ROLE",
      "outputs": [
        {
          "internalType": "bytes32",
          "name": "",
          "type": "bytes32"
        }
      ],
      "stateMutability": "view",
      "type": "function"
    },
    {
      "inputs": [],
      "name": "MAX_SLIPPAGE",
      "outputs": [
        {
          "internalType": "uint256",
          "name": "",
          "type": "uint256"
        }
      ],
      "stateMutability": "view",
      "type": "function"
    },
    {
      "inputs": [],
      "name": "POINTS",
      "outputs": [
        {
          "internalType": "uint256",
          "name": "",
          "type": "uint256"
        }
      ],
      "stateMutability": "view",
      "type": "function"
    },
    {
      "inputs": [
        {
          "internalType": "uint256",
          "name": "epoch",
          "type": "uint256"
        }
      ],
      "name": "amountTokenEarned",
      "outputs": [
        {
          "internalType": "uint256",
          "name": "amount",
          "type": "uint256"
        }
      ],
      "stateMutability": "view",
      "type": "function"
    },
    {
      "inputs": [],
      "name": "autoConverterFactory",
      "outputs": [
        {
          "internalType": "contract IRelayFactory",
          "name": "",
          "type": "address"
        }
      ],
      "stateMutability": "view",
      "type": "function"
    },
    {
      "inputs": [
        {
          "internalType": "address[]",
          "name": "_bribes",
          "type": "address[]"
        },
        {
          "internalType": "address[][]",
          "name": "_tokens",
          "type": "address[][]"
        }
      ],
      "name": "claimBribes",
      "outputs": [],
      "stateMutability": "nonpayable",
      "type": "function"
    },
    {
      "inputs": [
        {
          "internalType": "address[]",
          "name": "_fees",
          "type": "address[]"
        },
        {
          "internalType": "address[][]",
          "name": "_tokens",
          "type": "address[][]"
        }
      ],
      "name": "claimFees",
      "outputs": [],
      "stateMutability": "nonpayable",
      "type": "function"
    },
    {
      "inputs": [],
      "name": "distributor",
      "outputs": [
        {
          "internalType": "contract IRewardsDistributor",
          "name": "",
          "type": "address"
        }
      ],
      "stateMutability": "view",
      "type": "function"
    },
    {
      "inputs": [
        {
          "internalType": "bytes32",
          "name": "role",
          "type": "bytes32"
        }
      ],
      "name": "getRoleAdmin",
      "outputs": [
        {
          "internalType": "bytes32",
          "name": "",
          "type": "bytes32"
        }
      ],
      "stateMutability": "view",
      "type": "function"
    },
    {
      "inputs": [
        {
          "internalType": "bytes32",
          "name": "role",
          "type": "bytes32"
        },
        {
          "internalType": "uint256",
          "name": "index",
          "type": "uint256"
        }
      ],
      "name": "getRoleMember",
      "outputs": [
        {
          "internalType": "address",
          "name": "",
          "type": "address"
        }
      ],
      "stateMutability": "view",
      "type": "function"
    },
    {
      "inputs": [
        {
          "internalType": "bytes32",
          "name": "role",
          "type": "bytes32"
        }
      ],
      "name": "getRoleMemberCount",
      "outputs": [
        {
          "internalType": "uint256",
          "name": "",
          "type": "uint256"
        }
      ],
      "stateMutability": "view",
      "type": "function"
    },
    {
      "inputs": [
        {
          "internalType": "bytes32",
          "name": "role",
          "type": "bytes32"
        },
        {
          "internalType": "address",
          "name": "account",
          "type": "address"
        }
      ],
      "name": "grantRole",
      "outputs": [],
      "stateMutability": "nonpayable",
      "type": "function"
    },
    {
      "inputs": [
        {
          "internalType": "bytes32",
          "name": "role",
          "type": "bytes32"
        },
        {
          "internalType": "address",
          "name": "account",
          "type": "address"
        }
      ],
      "name": "hasRole",
      "outputs": [
        {
          "internalType": "bool",
          "name": "",
          "type": "bool"
        }
      ],
      "stateMutability": "view",
      "type": "function"
    },
    {
      "inputs": [
        {
          "internalType": "uint256",
          "name": "_value",
          "type": "uint256"
        }
      ],
      "name": "increaseAmount",
      "outputs": [],
      "stateMutability": "nonpayable",
      "type": "function"
    },
    {
      "inputs": [
        {
          "internalType": "uint256",
          "name": "_mTokenId",
          "type": "uint256"
        }
      ],
      "name": "initialize",
      "outputs": [],
      "stateMutability": "nonpayable",
      "type": "function"
    },
    {
      "inputs": [
        {
          "internalType": "address",
          "name": "forwarder",
          "type": "address"
        }
      ],
      "name": "isTrustedForwarder",
      "outputs": [
        {
          "internalType": "bool",
          "name": "",
          "type": "bool"
        }
      ],
      "stateMutability": "view",
      "type": "function"
    },
    {
      "inputs": [],
      "name": "keeperLastRun",
      "outputs": [
        {
          "internalType": "uint256",
          "name": "",
          "type": "uint256"
        }
      ],
      "stateMutability": "view",
      "type": "function"
    },
    {
      "inputs": [],
      "name": "mTokenId",
      "outputs": [
        {
          "internalType": "uint256",
          "name": "",
          "type": "uint256"
        }
      ],
      "stateMutability": "view",
      "type": "function"
    },
    {
      "inputs": [
        {
          "internalType": "bytes[]",
          "name": "_calls",
          "type": "bytes[]"
        }
      ],
      "name": "multicall",
      "outputs": [],
      "stateMutability": "nonpayable",
      "type": "function"
    },
    {
      "inputs": [],
      "name": "name",
      "outputs": [
        {
          "internalType": "string",
          "name": "",
          "type": "string"
        }
      ],
      "stateMutability": "view",
      "type": "function"
    },
    {
      "inputs": [
        {
          "internalType": "address",
          "name": "",
          "type": "address"
        },
        {
          "internalType": "address",
          "name": "",
          "type": "address"
        },
        {
          "internalType": "uint256",
          "name": "",
          "type": "uint256"
        },
        {
          "internalType": "bytes",
          "name": "",
          "type": "bytes"
        }
      ],
      "name": "onERC721Received",
      "outputs": [
        {
          "internalType": "bytes4",
          "name": "",
          "type": "bytes4"
        }
      ],
      "stateMutability": "nonpayable",
      "type": "function"
    },
    {
      "inputs": [],
      "name": "optimizer",
      "outputs": [
        {
          "internalType": "contract IOptimizer",
          "name": "",
          "type": "address"
        }
      ],
      "stateMutability": "view",
      "type": "function"
    },
    {
      "inputs": [],
      "name": "relayFactory",
      "outputs": [
        {
          "internalType": "contract IRelayFactory",
          "name": "",
          "type": "address"
        }
      ],
      "stateMutability": "view",
      "type": "function"
    },
    {
      "inputs": [
        {
          "internalType": "bytes32",
          "name": "role",
          "type": "bytes32"
        },
        {
          "internalType": "address",
          "name": "account",
          "type": "address"
        }
      ],
      "name": "renounceRole",
      "outputs": [],
      "stateMutability": "nonpayable",
      "type": "function"
    },
    {
      "inputs": [
        {
          "internalType": "bytes32",
          "name": "role",
          "type": "bytes32"
        },
        {
          "internalType": "address",
          "name": "account",
          "type": "address"
        }
      ],
      "name": "revokeRole",
      "outputs": [],
      "stateMutability": "nonpayable",
      "type": "function"
    },
    {
      "inputs": [],
      "name": "router",
      "outputs": [
        {
          "internalType": "contract IRouter",
          "name": "",
          "type": "address"
        }
      ],
      "stateMutability": "view",
      "type": "function"
    },
    {
      "inputs": [
        {
          "internalType": "address",
          "name": "_optimizer",
          "type": "address"
        }
      ],
      "name": "setOptimizer",
      "outputs": [],
      "stateMutability": "nonpayable",
      "type": "function"
    },
    {
      "inputs": [
        {
          "internalType": "bytes4",
          "name": "interfaceId",
          "type": "bytes4"
        }
      ],
      "name": "supportsInterface",
      "outputs": [
        {
          "internalType": "bool",
          "name": "",
          "type": "bool"
        }
      ],
      "stateMutability": "view",
      "type": "function"
    },
    {
      "inputs": [
        {
          "internalType": "address",
          "name": "_token",
          "type": "address"
        },
        {
          "internalType": "uint256",
          "name": "_slippage",
          "type": "uint256"
        },
        {
          "components": [
            {
              "internalType": "address",
              "name": "from",
              "type": "address"
            },
            {
              "internalType": "address",
              "name": "to",
              "type": "address"
            },
            {
              "internalType": "bool",
              "name": "stable",
              "type": "bool"
            },
            {
              "internalType": "address",
              "name": "factory",
              "type": "address"
            }
          ],
          "internalType": "struct IRouter.Route[]",
          "name": "_optionalRoute",
          "type": "tuple[]"
        }
      ],
      "name": "swapTokenToTokenWithOptionalRoute",
      "outputs": [],
      "stateMutability": "nonpayable",
      "type": "function"
    },
    {
      "inputs": [
        {
          "internalType": "address",
          "name": "_token",
          "type": "address"
        },
        {
          "internalType": "address",
          "name": "_recipient",
          "type": "address"
        },
        {
          "internalType": "uint256",
          "name": "_amount",
          "type": "uint256"
        }
      ],
      "name": "sweep",
      "outputs": [],
      "stateMutability": "nonpayable",
      "type": "function"
    },
    {
      "inputs": [],
      "name": "token",
      "outputs": [
        {
          "internalType": "address",
          "name": "",
          "type": "address"
        }
      ],
      "stateMutability": "view",
      "type": "function"
    },
    {
      "inputs": [],
      "name": "ve",
      "outputs": [
        {
          "internalType": "contract IVotingEscrow",
          "name": "",
          "type": "address"
        }
      ],
      "stateMutability": "view",
      "type": "function"
    },
    {
      "inputs": [],
      "name": "velo",
      "outputs": [
        {
          "internalType": "contract IERC20",
          "name": "",
          "type": "address"
        }
      ],
      "stateMutability": "view",
      "type": "function"
    },
    {
      "inputs": [
        {
          "internalType": "address[]",
          "name": "_poolVote",
          "type": "address[]"
        },
        {
          "internalType": "uint256[]",
          "name": "_weights",
          "type": "uint256[]"
        }
      ],
      "name": "vote",
      "outputs": [],
      "stateMutability": "nonpayable",
      "type": "function"
    },
    {
      "inputs": [],
      "name": "voter",
      "outputs": [
        {
          "internalType": "contract IVoter",
          "name": "",
          "type": "address"
        }
      ],
      "stateMutability": "view",
      "type": "function"
    }
  ],
  "bytecode": "0x6101606040523480156200001257600080fd5b506040516200373638038062003736833981016040819052620000359162000444565b6001600160a01b038089166080526001600055871660a081905260408051630fc2838b60e11b815290518a928a928a92869288928c92631f850716916004808201926020929091908290030181865afa15801562000097573d6000803e3d6000fd5b505050506040513d601f19601f82011682018060405250810190620000bd91906200059c565b6001600160a01b031660c081905260408051637e062a3560e11b8152905163fc0c546a916004808201926020929091908290030181865afa15801562000107573d6000803e3d6000fd5b505050506040513d601f19601f820116820180604052508101906200012d91906200059c565b6001600160a01b0390811660e052600680546001600160a01b03191685831617905560c051604080516317fc212560e31b81529051919092169163bfe109289160048083019260209291908290030181865afa15801562000192573d6000803e3d6000fd5b505050506040513d601f19601f82011682018060405250810190620001b891906200059c565b6001600160a01b0390811661010052600780546001600160a01b0319169184169190911790556005620001ec828262000648565b50620001fa60008562000284565b50505050505062000210620002af60201b60201c565b6001600160a01b039081166101205284811661014052600980546001600160a01b0319169185169190911790556200024a60008762000284565b620002767f7437720917ffc71be5dbfd61616849063f25aa1b112e64e43aaa76f282aaddff8762000284565b505050505050505062000714565b620002908282620002c0565b6000828152600260205260409020620002aa908262000368565b505050565b6000620002bb62000388565b905090565b60008281526001602090815260408083206001600160a01b038516845290915290205460ff16620003645760008281526001602081815260408084206001600160a01b0386168552909152909120805460ff1916909117905562000323620002af565b6001600160a01b0316816001600160a01b0316837f2f8788117e7eff1d82e926ec794901d17c78024a50270940304540a733656f0d60405160405180910390a45b5050565b60006200037f836001600160a01b038416620003bf565b90505b92915050565b6080516000906001600160a01b031633148015620003a7575060143610155b15620003ba575060131936013560601c90565b503390565b6000818152600183016020526040812054620004085750815460018181018455600084815260208082209093018490558454848252828601909352604090209190915562000382565b50600062000382565b80516001600160a01b03811681146200042957600080fd5b919050565b634e487b7160e01b600052604160045260246000fd5b600080600080600080600080610100898b0312156200046257600080fd5b6200046d8962000411565b975060206200047e818b0162000411565b97506200048e60408b0162000411565b60608b01519097506001600160401b0380821115620004ac57600080fd5b818c0191508c601f830112620004c157600080fd5b815181811115620004d657620004d66200042e565b604051601f8201601f19908116603f011681019083821181831017156200050157620005016200042e565b816040528281528f868487010111156200051a57600080fd5b600093505b828410156200053e57848401860151818501870152928501926200051f565b6000868483010152809a505050505050506200055d60808a0162000411565b93506200056d60a08a0162000411565b92506200057d60c08a0162000411565b91506200058d60e08a0162000411565b90509295985092959890939650565b600060208284031215620005af57600080fd5b6200037f8262000411565b600181811c90821680620005cf57607f821691505b602082108103620005f057634e487b7160e01b600052602260045260246000fd5b50919050565b601f821115620002aa57600081815260208120601f850160051c810160208610156200061f5750805b601f850160051c820191505b8181101562000640578281556001016200062b565b505050505050565b81516001600160401b038111156200066457620006646200042e565b6200067c81620006758454620005ba565b84620005f6565b602080601f831160018114620006b457600084156200069b5750858301515b600019600386901b1c1916600185901b17855562000640565b600085815260208120601f198616915b82811015620006e557888601518255948401946001909101908401620006c4565b5085821015620007045787850151600019600388901b60f8161c191681555b5050505050600190811b01905550565b60805160a05160c05160e051610100516101205161014051612f5e620007d86000396000818161057701528181610e870152610ec60152600081816103610152610cf10152600081816104bd01528181611a770152611b06015260008181610430015281816106be01526107700152600081816102a401528181610791015281816107d401528181611588015261164a0152600081816103880152818161121c015281816113ae015261143c0152600081816103ba0152611be20152612f5e6000f3fe608060405234801561001057600080fd5b506004361061021c5760003560e01c80639010d07c11610125578063c2b79e98116100ad578063eb1410e91161007c578063eb1410e91461054b578063f887ea4014610572578063f975951814610599578063fc0c546a146105a2578063fe4b84df146105b557600080fd5b8063c2b79e98146104ff578063c991866d14610512578063ca15c87314610525578063d547741f1461053857600080fd5b8063ac9650d8116100f4578063ac9650d814610493578063adadb50d146104a6578063b2da6c50146104af578063bfe10928146104b8578063bff136a9146104df57600080fd5b80639010d07c1461045257806391d148541461046557806398cf471514610478578063a217fddf1461048b57600080fd5b806336568abe116101a857806362c067671161017757806362c06767146103ea5780636f816a20146103fd57806370156bf2146104105780637f6e4281146104235780638c7c53ce1461042b57600080fd5b806336568abe14610349578063436f92331461035c57806346c96aac14610383578063572b6c05146103aa57600080fd5b80631f850716116101ef5780631f8507161461029f578063248a9ca3146102de5780632f2ff15d146103105780633103ccb7146103235780633357be6a1461033657600080fd5b806301ffc9a71461022157806306fdde0314610249578063150b7a021461025e57806315456eba1461028a575b600080fd5b61023461022f36600461242e565b6105c8565b60405190151581526020015b60405180910390f35b6102516105f3565b604051610240919061247c565b61027161026c366004612532565b610681565b6040516001600160e01b03199091168152602001610240565b61029d6102983660046125f5565b610692565b005b6102c67f000000000000000000000000000000000000000000000000000000000000000081565b6040516001600160a01b039091168152602001610240565b6103026102ec3660046125f5565b6000908152600160208190526040909120015490565b604051908152602001610240565b61029d61031e36600461260e565b61083c565b61029d61033136600461263e565b610867565b61029d61034436600461268c565b61099e565b61029d61035736600461260e565b61110d565b6102c67f000000000000000000000000000000000000000000000000000000000000000081565b6102c67f000000000000000000000000000000000000000000000000000000000000000081565b6102346103b836600461263e565b7f00000000000000000000000000000000000000000000000000000000000000006001600160a01b0390811691161490565b61029d6103f836600461279d565b6111a0565b61029d61040b366004612829565b6111d7565b6006546102c6906001600160a01b031681565b610302600381565b6102c67f000000000000000000000000000000000000000000000000000000000000000081565b6102c6610460366004612894565b611294565b61023461047336600461260e565b6112b3565b6007546102c6906001600160a01b031681565b610302600081565b61029d6104a13660046128b6565b6112de565b61030260045481565b61030260085481565b6102c67f000000000000000000000000000000000000000000000000000000000000000081565b6103026104ed3660046125f5565b600a6020526000908152604090205481565b61029d61050d366004612829565b611393565b61029d610520366004612829565b611421565b6103026105333660046125f5565b611475565b61029d61054636600461260e565b61148c565b6103027f7437720917ffc71be5dbfd61616849063f25aa1b112e64e43aaa76f282aaddff81565b6102c67f000000000000000000000000000000000000000000000000000000000000000081565b6103026101f481565b6009546102c6906001600160a01b031681565b61029d6105c33660046125f5565b6114b2565b60006001600160e01b03198216635a05180f60e01b14806105ed57506105ed8261172a565b92915050565b60058054610600906128f7565b80601f016020809104026020016040519081016040528092919081815260200182805461062c906128f7565b80156106795780601f1061064e57610100808354040283529160200191610679565b820191906000526020600020905b81548152906001019060200180831161065c57829003601f168201915b505050505081565b630a85bd0160e11b5b949350505050565b7f7437720917ffc71be5dbfd61616849063f25aa1b112e64e43aaa76f282aaddff6106bc8161175f565b7f00000000000000000000000000000000000000000000000000000000000000006001600160a01b03166323b872dd6106f3611773565b6040516001600160e01b031960e084901b1681526001600160a01b039091166004820152306024820152604481018590526064016020604051808303816000875af1158015610746573d6000803e3d6000fd5b505050506040513d601f19601f8201168201806040525081019061076a9190612931565b506107b67f00000000000000000000000000000000000000000000000000000000000000007f000000000000000000000000000000000000000000000000000000000000000084611782565b6004805460405163b2383e5560e01b815291820152602481018390527f00000000000000000000000000000000000000000000000000000000000000006001600160a01b03169063b2383e5590604401600060405180830381600087803b15801561082057600080fd5b505af1158015610834573d6000803e3d6000fd5b505050505050565b600082815260016020819052604090912001546108588161175f565b6108628383611826565b505050565b60006108728161175f565b6001600160a01b0382166108995760405163d92e233d60e01b815260040160405180910390fd5b6007546001600160a01b038084169116036108c757604051635a72cb4560e01b815260040160405180910390fd5b600654604051630cb1ecc760e31b81526001600160a01b0384811660048301529091169063658f663890602401602060405180830381865afa158015610911573d6000803e3d6000fd5b505050506040513d601f19601f820116820180604052508101906109359190612931565b1561095357604051631a29c06b60e11b815260040160405180910390fd5b600780546001600160a01b0319166001600160a01b0384169081179091556040517f301c03671785e657bc9c566c6a1be1dacedb60210c848fa360eeaf56ae0f0a4090600090a25050565b6009546040516370a0823160e01b81523060048201526000916001600160a01b0316906370a0823190602401602060405180830381865afa1580156109e7573d6000803e3d6000fd5b505050506040513d601f19601f82011682018060405250810190610a0b919061294e565b9050610a15611848565b610a1e336118a1565b6101f4831115610a415760405163428637bb60e11b815260040160405180910390fd5b6009546001600160a01b0390811690851603610a70576040516320db826760e01b815260040160405180910390fd5b6001600160a01b038416610a975760405163d92e233d60e01b815260040160405180910390fd5b6040516370a0823160e01b81523060048201526000906001600160a01b038616906370a0823190602401602060405180830381865afa158015610ade573d6000803e3d6000fd5b505050506040513d601f19601f82011682018060405250810190610b02919061294e565b905080600003610b25576040516340561e0d60e01b815260040160405180910390fd5b6007546009546040516350e5a49360e01b81526001600160a01b03888116600483015291821660248201526044810184905260009291909116906350e5a49390606401600060405180830381865afa158015610b85573d6000803e3d6000fd5b505050506040513d6000823e601f3d908101601f19168201604052610bad9190810190612967565b600754604051637cb49a8f60e11b81529192506000916001600160a01b039091169063f969351e90610bea90859087906003908c90600401612ab5565b602060405180830381865afa158015610c07573d6000803e3d6000fd5b505050506040513d601f19601f82011682018060405250810190610c2b919061294e565b85519091506001811115610e6057876001600160a01b031686600081518110610c5657610c56612ae4565b6020026020010151600001516001600160a01b031614610c89576040516320db826760e01b815260040160405180910390fd5b6009546001600160a01b031686610ca1600184612b10565b81518110610cb157610cb1612ae4565b6020026020010151602001516001600160a01b031614610ce4576040516320db826760e01b815260040160405180910390fd5b60015b81811015610dd3577f00000000000000000000000000000000000000000000000000000000000000006001600160a01b03166307e1eaa4888381518110610d3057610d30612ae4565b6020908102919091010151516040516001600160e01b031960e084901b1681526001600160a01b039091166004820152602401602060405180830381865afa158015610d80573d6000803e3d6000fd5b505050506040513d601f19601f82011682018060405250810190610da49190612931565b610dc15760405163b1b3464d60e01b815260040160405180910390fd5b80610dcb81612b23565b915050610ce7565b50600754604051637cb49a8f60e11b81526000916001600160a01b03169063f969351e90610e0c908a9089906003908e90600401612ab5565b602060405180830381865afa158015610e29573d6000803e3d6000fd5b505050506040513d601f19601f82011682018060405250810190610e4d919061294e565b905082811115610e5e578693508092505b505b81600003610e81576040516305fcedf360e01b815260040160405180910390fd5b610eac887f000000000000000000000000000000000000000000000000000000000000000086611782565b60405163cac88ea960e01b81526000906001600160a01b037f0000000000000000000000000000000000000000000000000000000000000000169063cac88ea990610f039088908790899030904290600401612b3c565b6000604051808303816000875af1158015610f22573d6000803e3d6000fd5b505050506040513d6000823e601f3d908101601f19168201604052610f4a9190810190612b78565b6006546040516335d2155560e11b81523360048201529192506001600160a01b031690636ba42aaa90602401602060405180830381865afa158015610f93573d6000803e3d6000fd5b505050506040513d601f19601f82011682018060405250810190610fb79190612931565b15610fc157426008555b886001600160a01b0316610fd3611773565b6001600160a01b03167f66c6d3d5fb004695807675326394a5fccaaed740b55b4e962e2fbf9ef2dc5b4487846001865161100d9190612b10565b8151811061101d5761101d612ae4565b60200260200101518860405161103593929190612bfd565b60405180910390a3505050505061104c6001600055565b6009546040516370a0823160e01b815230600482015260009183916001600160a01b03909116906370a0823190602401602060405180830381865afa158015611099573d6000803e3d6000fd5b505050506040513d601f19601f820116820180604052508101906110bd919061294e565b6110c79190612b10565b905080156111065780600a60006110e34262093a808106900390565b815260200190815260200160002060008282546111009190612c25565b90915550505b5050505050565b611115611773565b6001600160a01b0316816001600160a01b0316146111925760405162461bcd60e51b815260206004820152602f60248201527f416363657373436f6e74726f6c3a2063616e206f6e6c792072656e6f756e636560448201526e103937b632b9903337b91039b2b63360891b60648201526084015b60405180910390fd5b61119c82826119c9565b5050565b60006111ab8161175f565b6111b3611848565b6111c76001600160a01b03851684846119eb565b6111d16001600055565b50505050565b7f7437720917ffc71be5dbfd61616849063f25aa1b112e64e43aaa76f282aaddff6112018161175f565b60048054604051637ac09bf760e01b81526001600160a01b037f00000000000000000000000000000000000000000000000000000000000000001692637ac09bf7926112579290918a918a918a918a9101612c76565b600060405180830381600087803b15801561127157600080fd5b505af1158015611285573d6000803e3d6000fd5b50504260085550505050505050565b60008281526002602052604081206112ac9083611a4e565b9392505050565b60009182526001602090815260408084206001600160a01b0393909316845291905290205460ff1690565b60005b81811015610862576000308484848181106112fe576112fe612ae4565b90506020028101906113109190612cc9565b60405161131e929190612d0f565b600060405180830381855af49150503d8060008114611359576040519150601f19603f3d011682016040523d82523d6000602084013e61135e565b606091505b5050905080611380576040516309ad446560e31b815260040160405180910390fd5b508061138b81612b23565b9150506112e1565b60048054604051637715ee7560e01b81526001600160a01b037f00000000000000000000000000000000000000000000000000000000000000001692637715ee75926113e792899289928992899201612d1f565b600060405180830381600087803b15801561140157600080fd5b505af1158015611415573d6000803e3d6000fd5b505050506111d1611a5a565b600480546040516333312b5560e11b81526001600160a01b037f0000000000000000000000000000000000000000000000000000000000000000169263666256aa926113e792899289928992899201612d1f565b60008181526002602052604081206105ed90611b7b565b600082815260016020819052604090912001546114a88161175f565b61086283836119c9565b600354610100900460ff16158080156114d25750600354600160ff909116105b806114ec5750303b1580156114ec575060035460ff166001145b61154f5760405162461bcd60e51b815260206004820152602e60248201527f496e697469616c697a61626c653a20636f6e747261637420697320616c72656160448201526d191e481a5b9a5d1a585b1a5e995960921b6064820152608401611189565b6003805460ff191660011790558015611572576003805461ff0019166101001790555b600260405161f8e560ef1b8152600481018490527f00000000000000000000000000000000000000000000000000000000000000006001600160a01b031690637c72800090602401602060405180830381865afa1580156115d7573d6000803e3d6000fd5b505050506040513d601f19601f820116820180604052508101906115fb9190612df3565b600281111561160c5761160c612ddd565b1461162a57604051634bc9d63360e11b815260040160405180910390fd5b6040516331a9108f60e11b81526004810183905230906001600160a01b037f00000000000000000000000000000000000000000000000000000000000000001690636352211e90602401602060405180830381865afa158015611691573d6000803e3d6000fd5b505050506040513d601f19601f820116820180604052508101906116b59190612e14565b6001600160a01b0316146116dc5760405163e927bfbd60e01b815260040160405180910390fd5b6004829055801561119c576003805461ff0019169055604051600181527f7f26b83ff96e1f2b6a682f133852f6798a09c465da95921460cefb38474024989060200160405180910390a15050565b60006001600160e01b03198216637965db0b60e01b14806105ed57506301ffc9a760e01b6001600160e01b03198316146105ed565b6117708161176b611773565b611b85565b50565b600061177d611bde565b905090565b604051636eb1769f60e11b81523060048201526001600160a01b0383811660248301526000919085169063dd62ed3e90604401602060405180830381865afa1580156117d2573d6000803e3d6000fd5b505050506040513d601f19601f820116820180604052508101906117f6919061294e565b90508015611812576118126001600160a01b0385168483611c30565b6111d16001600160a01b0385168484611d39565b6118308282611de6565b60008281526002602052604090206108629082611e6e565b60026000540361189a5760405162461bcd60e51b815260206004820152601f60248201527f5265656e7472616e637947756172643a207265656e7472616e742063616c6c006044820152606401611189565b6002600055565b6118ac6000826112b3565b156118b45750565b4260006118c462093a8083612e31565b6118ce9083612b10565b6118da90610e10612c25565b6006546040516335d2155560e11b81526001600160a01b038681166004830152929350911690636ba42aaa90602401602060405180830381865afa158015611926573d6000803e3d6000fd5b505050506040513d601f19601f8201168201806040525081019061194a9190612931565b156119745780821061195b57505050565b604051636fed7d8560e01b815260040160405180910390fd5b60006201518062093a806119888186612e31565b6119929086612b10565b61199c9190612c25565b6119a69190612b10565b9050808310156111d157604051636fed7d8560e01b815260040160405180910390fd5b6119d38282611e83565b60008281526002602052604090206108629082611f08565b6040516001600160a01b03831660248201526044810182905261086290849063a9059cbb60e01b906064015b60408051601f198184030181529190526020810180516001600160e01b03166001600160e01b031990931692909217909152611f1d565b60006112ac8383611ff2565b6004805460405163d1d58b2560e01b8152918201819052906000907f00000000000000000000000000000000000000000000000000000000000000006001600160a01b03169063d1d58b2590602401602060405180830381865afa158015611ac6573d6000803e3d6000fd5b505050506040513d601f19601f82011682018060405250810190611aea919061294e565b11156117705760405163379607f560e01b8152600481018290527f00000000000000000000000000000000000000000000000000000000000000006001600160a01b03169063379607f5906024016020604051808303816000875af1158015611b57573d6000803e3d6000fd5b505050506040513d601f19601f8201168201806040525081019061119c919061294e565b60006105ed825490565b611b8f82826112b3565b61119c57611b9c8161201c565b611ba783602061202e565b604051602001611bb8929190612e53565b60408051601f198184030181529082905262461bcd60e51b82526111899160040161247c565b60007f00000000000000000000000000000000000000000000000000000000000000006001600160a01b031633148015611c19575060143610155b15611c2b575060131936013560601c90565b503390565b604051636eb1769f60e11b81523060048201526001600160a01b0383811660248301526000919085169063dd62ed3e90604401602060405180830381865afa158015611c80573d6000803e3d6000fd5b505050506040513d601f19601f82011682018060405250810190611ca4919061294e565b905081811015611d085760405162461bcd60e51b815260206004820152602960248201527f5361666545524332303a2064656372656173656420616c6c6f77616e63652062604482015268656c6f77207a65726f60b81b6064820152608401611189565b6040516001600160a01b038416602482015282820360448201526111d190859063095ea7b360e01b90606401611a17565b604051636eb1769f60e11b81523060048201526001600160a01b0383811660248301526000919085169063dd62ed3e90604401602060405180830381865afa158015611d89573d6000803e3d6000fd5b505050506040513d601f19601f82011682018060405250810190611dad919061294e565b90506111d18463095ea7b360e01b85611dc68686612c25565b6040516001600160a01b0390921660248301526044820152606401611a17565b611df082826112b3565b61119c5760008281526001602081815260408084206001600160a01b0386168552909152909120805460ff19169091179055611e2a611773565b6001600160a01b0316816001600160a01b0316837f2f8788117e7eff1d82e926ec794901d17c78024a50270940304540a733656f0d60405160405180910390a45050565b60006112ac836001600160a01b0384166121c9565b611e8d82826112b3565b1561119c5760008281526001602090815260408083206001600160a01b03851684529091529020805460ff19169055611ec4611773565b6001600160a01b0316816001600160a01b0316837ff6391f5c32d9c69d2a47ea670b442974b53935d1edc7fd64eb21e047a839171b60405160405180910390a45050565b60006112ac836001600160a01b038416612218565b6000611f72826040518060400160405280602081526020017f5361666545524332303a206c6f772d6c6576656c2063616c6c206661696c6564815250856001600160a01b031661230b9092919063ffffffff16565b9050805160001480611f93575080806020019051810190611f939190612931565b6108625760405162461bcd60e51b815260206004820152602a60248201527f5361666545524332303a204552433230206f7065726174696f6e20646964206e6044820152691bdd081cdd58d8d9595960b21b6064820152608401611189565b600082600001828154811061200957612009612ae4565b9060005260206000200154905092915050565b60606105ed6001600160a01b03831660145b6060600061203d836002612ec8565b612048906002612c25565b6001600160401b0381111561205f5761205f6124c4565b6040519080825280601f01601f191660200182016040528015612089576020820181803683370190505b509050600360fc1b816000815181106120a4576120a4612ae4565b60200101906001600160f81b031916908160001a905350600f60fb1b816001815181106120d3576120d3612ae4565b60200101906001600160f81b031916908160001a90535060006120f7846002612ec8565b612102906001612c25565b90505b600181111561217a576f181899199a1a9b1b9c1cb0b131b232b360811b85600f166010811061213657612136612ae4565b1a60f81b82828151811061214c5761214c612ae4565b60200101906001600160f81b031916908160001a90535060049490941c9361217381612edf565b9050612105565b5083156112ac5760405162461bcd60e51b815260206004820181905260248201527f537472696e67733a20686578206c656e67746820696e73756666696369656e746044820152606401611189565b6000818152600183016020526040812054612210575081546001818101845560008481526020808220909301849055845484825282860190935260409020919091556105ed565b5060006105ed565b6000818152600183016020526040812054801561230157600061223c600183612b10565b855490915060009061225090600190612b10565b90508181146122b557600086600001828154811061227057612270612ae4565b906000526020600020015490508087600001848154811061229357612293612ae4565b6000918252602080832090910192909255918252600188019052604090208390555b85548690806122c6576122c6612ef6565b6001900381819060005260206000200160009055905585600101600086815260200190815260200160002060009055600193505050506105ed565b60009150506105ed565b606061068a848460008585600080866001600160a01b031685876040516123329190612f0c565b60006040518083038185875af1925050503d806000811461236f576040519150601f19603f3d011682016040523d82523d6000602084013e612374565b606091505b509150915061238587838387612390565b979650505050505050565b606083156123ff5782516000036123f8576001600160a01b0385163b6123f85760405162461bcd60e51b815260206004820152601d60248201527f416464726573733a2063616c6c20746f206e6f6e2d636f6e74726163740000006044820152606401611189565b508161068a565b61068a83838151156124145781518083602001fd5b8060405162461bcd60e51b8152600401611189919061247c565b60006020828403121561244057600080fd5b81356001600160e01b0319811681146112ac57600080fd5b60005b8381101561247357818101518382015260200161245b565b50506000910152565b602081526000825180602084015261249b816040850160208701612458565b601f01601f19169190910160400192915050565b6001600160a01b038116811461177057600080fd5b634e487b7160e01b600052604160045260246000fd5b604051608081016001600160401b03811182821017156124fc576124fc6124c4565b60405290565b604051601f8201601f191681016001600160401b038111828210171561252a5761252a6124c4565b604052919050565b6000806000806080858703121561254857600080fd5b8435612553816124af565b9350602085810135612564816124af565b93506040860135925060608601356001600160401b038082111561258757600080fd5b818801915088601f83011261259b57600080fd5b8135818111156125ad576125ad6124c4565b6125bf601f8201601f19168501612502565b915080825289848285010111156125d557600080fd5b808484018584013760008482840101525080935050505092959194509250565b60006020828403121561260757600080fd5b5035919050565b6000806040838503121561262157600080fd5b823591506020830135612633816124af565b809150509250929050565b60006020828403121561265057600080fd5b81356112ac816124af565b60006001600160401b03821115612674576126746124c4565b5060051b60200190565b801515811461177057600080fd5b600080600060608085870312156126a257600080fd5b84356126ad816124af565b935060208581013593506040808701356001600160401b038111156126d157600080fd5b8701601f810189136126e257600080fd5b80356126f56126f08261265b565b612502565b81815260079190911b8201840190848101908b83111561271457600080fd5b928501925b8284101561278c576080848d0312156127325760008081fd5b61273a6124da565b8435612745816124af565b815284870135612754816124af565b81880152848601356127658161267e565b8187015284880135612776816124af565b8189015282526080939093019290850190612719565b809750505050505050509250925092565b6000806000606084860312156127b257600080fd5b83356127bd816124af565b925060208401356127cd816124af565b929592945050506040919091013590565b60008083601f8401126127f057600080fd5b5081356001600160401b0381111561280757600080fd5b6020830191508360208260051b850101111561282257600080fd5b9250929050565b6000806000806040858703121561283f57600080fd5b84356001600160401b038082111561285657600080fd5b612862888389016127de565b9096509450602087013591508082111561287b57600080fd5b50612888878288016127de565b95989497509550505050565b600080604083850312156128a757600080fd5b50508035926020909101359150565b600080602083850312156128c957600080fd5b82356001600160401b038111156128df57600080fd5b6128eb858286016127de565b90969095509350505050565b600181811c9082168061290b57607f821691505b60208210810361292b57634e487b7160e01b600052602260045260246000fd5b50919050565b60006020828403121561294357600080fd5b81516112ac8161267e565b60006020828403121561296057600080fd5b5051919050565b6000602080838503121561297a57600080fd5b82516001600160401b0381111561299057600080fd5b8301601f810185136129a157600080fd5b80516129af6126f08261265b565b81815260079190911b820183019083810190878311156129ce57600080fd5b928401925b8284101561238557608084890312156129ec5760008081fd5b6129f46124da565b84516129ff816124af565b815284860151612a0e816124af565b81870152604085810151612a218161267e565b90820152606085810151612a34816124af565b90820152825260809390930192908401906129d3565b600081518084526020808501945080840160005b83811015612aaa57815180516001600160a01b039081168952848201518116858a01526040808301511515908a0152606091820151169088015260809096019590820190600101612a5e565b509495945050505050565b608081526000612ac86080830187612a4a565b6020830195909552506040810192909252606090910152919050565b634e487b7160e01b600052603260045260246000fd5b634e487b7160e01b600052601160045260246000fd5b818103818111156105ed576105ed612afa565b600060018201612b3557612b35612afa565b5060010190565b85815284602082015260a060408201526000612b5b60a0830186612a4a565b6001600160a01b0394909416606083015250608001529392505050565b60006020808385031215612b8b57600080fd5b82516001600160401b03811115612ba157600080fd5b8301601f81018513612bb257600080fd5b8051612bc06126f08261265b565b81815260059190911b82018301908381019087831115612bdf57600080fd5b928401925b8284101561238557835182529284019290840190612be4565b838152826020820152606060408201526000612c1c6060830184612a4a565b95945050505050565b808201808211156105ed576105ed612afa565b8183526000602080850194508260005b85811015612aaa578135612c5b816124af565b6001600160a01b031687529582019590820190600101612c48565b858152606060208201526000612c90606083018688612c38565b82810360408401528381526001600160fb1b03841115612caf57600080fd5b8360051b8086602084013701602001979650505050505050565b6000808335601e19843603018112612ce057600080fd5b8301803591506001600160401b03821115612cfa57600080fd5b60200191503681900382131561282257600080fd5b8183823760009101908152919050565b606081526000612d33606083018789612c38565b60208382038185015281868352818301905060058288821b8501018960005b8a811015612dc357868303601f190185528135368d9003601e19018112612d7857600080fd5b8c0186810190356001600160401b03811115612d9357600080fd5b80861b3603821315612da457600080fd5b612daf858284612c38565b968801969450505090850190600101612d52565b505080955050505050508260408301529695505050505050565b634e487b7160e01b600052602160045260246000fd5b600060208284031215612e0557600080fd5b8151600381106112ac57600080fd5b600060208284031215612e2657600080fd5b81516112ac816124af565b600082612e4e57634e487b7160e01b600052601260045260246000fd5b500690565b7f416363657373436f6e74726f6c3a206163636f756e7420000000000000000000815260008351612e8b816017850160208801612458565b7001034b99036b4b9b9b4b733903937b6329607d1b6017918401918201528351612ebc816028840160208801612458565b01602801949350505050565b80820281158282048414176105ed576105ed612afa565b600081612eee57612eee612afa565b506000190190565b634e487b7160e01b600052603160045260246000fd5b60008251612f1e818460208701612458565b919091019291505056fea2646970667358221220ab94d2991c645a8a22832770a977cde5b4ecba3664d52219627334c9cc2114ce64736f6c63430008130033",
  "linkReferences": {},
  "deployedLinkReferences": {}
}